{
  "_format": "hh3-artifact-1",
  "contractName": "POCRegistry",
  "sourceName": "src/POCRegistry.sol",
  "abi": [
    {
      "inputs": [
        {
          "internalType": "address",
          "name": "_synthToken",
          "type": "address"
        },
        {
          "internalType": "address",
          "name": "_pocEvaluator",
          "type": "address"
        }
      ],
      "stateMutability": "nonpayable",
      "type": "constructor"
    },
    {
      "anonymous": false,
      "inputs": [
        {
          "indexed": true,
          "internalType": "bytes32",
          "name": "submissionHash",
          "type": "bytes32"
        },
        {
          "indexed": true,
          "internalType": "address",
          "name": "contributor",
          "type": "address"
        },
        {
          "indexed": false,
          "internalType": "uint256",
          "name": "fee",
          "type": "uint256"
        }
      ],
      "name": "CertificateRegistered",
      "type": "event"
    },
    {
      "anonymous": false,
      "inputs": [
        {
          "indexed": true,
          "internalType": "bytes32",
          "name": "submissionHash",
          "type": "bytes32"
        },
        {
          "indexed": false,
          "internalType": "string[]",
          "name": "metals",
          "type": "string[]"
        },
        {
          "indexed": false,
          "internalType": "uint256",
          "name": "pocScore",
          "type": "uint256"
        }
      ],
      "name": "ContributionEvaluated",
      "type": "event"
    },
    {
      "anonymous": false,
      "inputs": [
        {
          "indexed": true,
          "internalType": "bytes32",
          "name": "submissionHash",
          "type": "bytes32"
        },
        {
          "indexed": true,
          "internalType": "address",
          "name": "contributor",
          "type": "address"
        },
        {
          "indexed": false,
          "internalType": "string",
          "name": "category",
          "type": "string"
        }
      ],
      "name": "ContributionSubmitted",
      "type": "event"
    },
    {
      "anonymous": false,
      "inputs": [
        {
          "indexed": true,
          "internalType": "address",
          "name": "previousOwner",
          "type": "address"
        },
        {
          "indexed": true,
          "internalType": "address",
          "name": "newOwner",
          "type": "address"
        }
      ],
      "name": "OwnershipTransferred",
      "type": "event"
    },
    {
      "inputs": [],
      "name": "FREE_SUBMISSIONS",
      "outputs": [
        {
          "internalType": "uint256",
          "name": "",
          "type": "uint256"
        }
      ],
      "stateMutability": "view",
      "type": "function"
    },
    {
      "inputs": [],
      "name": "REGISTRATION_FEE",
      "outputs": [
        {
          "internalType": "uint256",
          "name": "",
          "type": "uint256"
        }
      ],
      "stateMutability": "view",
      "type": "function"
    },
    {
      "inputs": [
        {
          "internalType": "uint256",
          "name": "",
          "type": "uint256"
        }
      ],
      "name": "allContributions",
      "outputs": [
        {
          "internalType": "bytes32",
          "name": "",
          "type": "bytes32"
        }
      ],
      "stateMutability": "view",
      "type": "function"
    },
    {
      "inputs": [
        {
          "internalType": "bytes32",
          "name": "submissionHash",
          "type": "bytes32"
        },
        {
          "internalType": "uint256",
          "name": "amount",
          "type": "uint256"
        },
        {
          "internalType": "uint8",
          "name": "epoch",
          "type": "uint8"
        },
        {
          "internalType": "string",
          "name": "primaryMetal",
          "type": "string"
        }
      ],
      "name": "allocateTokens",
      "outputs": [],
      "stateMutability": "nonpayable",
      "type": "function"
    },
    {
      "inputs": [
        {
          "internalType": "bytes32",
          "name": "",
          "type": "bytes32"
        }
      ],
      "name": "contributions",
      "outputs": [
        {
          "internalType": "bytes32",
          "name": "submissionHash",
          "type": "bytes32"
        },
        {
          "internalType": "address",
          "name": "contributor",
          "type": "address"
        },
        {
          "internalType": "string",
          "name": "title",
          "type": "string"
        },
        {
          "internalType": "string",
          "name": "category",
          "type": "string"
        },
        {
          "internalType": "uint256",
          "name": "coherence",
          "type": "uint256"
        },
        {
          "internalType": "uint256",
          "name": "density",
          "type": "uint256"
        },
        {
          "internalType": "uint256",
          "name": "novelty",
          "type": "uint256"
        },
        {
          "internalType": "uint256",
          "name": "pocScore",
          "type": "uint256"
        },
        {
          "internalType": "uint256",
          "name": "timestamp",
          "type": "uint256"
        },
        {
          "internalType": "bool",
          "name": "registered",
          "type": "bool"
        },
        {
          "internalType": "uint256",
          "name": "registrationFee",
          "type": "uint256"
        }
      ],
      "stateMutability": "view",
      "type": "function"
    },
    {
      "inputs": [
        {
          "internalType": "address",
          "name": "",
          "type": "address"
        }
      ],
      "name": "contributorSubmissionCount",
      "outputs": [
        {
          "internalType": "uint256",
          "name": "",
          "type": "uint256"
        }
      ],
      "stateMutability": "view",
      "type": "function"
    },
    {
      "inputs": [
        {
          "internalType": "address",
          "name": "",
          "type": "address"
        },
        {
          "internalType": "uint256",
          "name": "",
          "type": "uint256"
        }
      ],
      "name": "contributorSubmissions",
      "outputs": [
        {
          "internalType": "bytes32",
          "name": "",
          "type": "bytes32"
        }
      ],
      "stateMutability": "view",
      "type": "function"
    },
    {
      "inputs": [],
      "name": "emergencyPause",
      "outputs": [],
      "stateMutability": "nonpayable",
      "type": "function"
    },
    {
      "inputs": [
        {
          "internalType": "bytes32",
          "name": "submissionHash",
          "type": "bytes32"
        }
      ],
      "name": "getContribution",
      "outputs": [
        {
          "components": [
            {
              "internalType": "bytes32",
              "name": "submissionHash",
              "type": "bytes32"
            },
            {
              "internalType": "address",
              "name": "contributor",
              "type": "address"
            },
            {
              "internalType": "string",
              "name": "title",
              "type": "string"
            },
            {
              "internalType": "string",
              "name": "category",
              "type": "string"
            },
            {
              "internalType": "string[]",
              "name": "metals",
              "type": "string[]"
            },
            {
              "internalType": "uint256",
              "name": "coherence",
              "type": "uint256"
            },
            {
              "internalType": "uint256",
              "name": "density",
              "type": "uint256"
            },
            {
              "internalType": "uint256",
              "name": "novelty",
              "type": "uint256"
            },
            {
              "internalType": "uint256",
              "name": "pocScore",
              "type": "uint256"
            },
            {
              "internalType": "uint256",
              "name": "timestamp",
              "type": "uint256"
            },
            {
              "internalType": "bool",
              "name": "registered",
              "type": "bool"
            },
            {
              "internalType": "uint256",
              "name": "registrationFee",
              "type": "uint256"
            }
          ],
          "internalType": "struct POCRegistry.Contribution",
          "name": "",
          "type": "tuple"
        }
      ],
      "stateMutability": "view",
      "type": "function"
    },
    {
      "inputs": [
        {
          "internalType": "address",
          "name": "contributor",
          "type": "address"
        }
      ],
      "name": "getContributorSubmissions",
      "outputs": [
        {
          "internalType": "bytes32[]",
          "name": "",
          "type": "bytes32[]"
        }
      ],
      "stateMutability": "view",
      "type": "function"
    },
    {
      "inputs": [
        {
          "internalType": "address",
          "name": "contributor",
          "type": "address"
        }
      ],
      "name": "getRegistrationFee",
      "outputs": [
        {
          "internalType": "uint256",
          "name": "",
          "type": "uint256"
        }
      ],
      "stateMutability": "view",
      "type": "function"
    },
    {
      "inputs": [],
      "name": "getTotalContributions",
      "outputs": [
        {
          "internalType": "uint256",
          "name": "",
          "type": "uint256"
        }
      ],
      "stateMutability": "view",
      "type": "function"
    },
    {
      "inputs": [
        {
          "internalType": "bytes32",
          "name": "submissionHash",
          "type": "bytes32"
        }
      ],
      "name": "isQualified",
      "outputs": [
        {
          "internalType": "bool",
          "name": "",
          "type": "bool"
        }
      ],
      "stateMutability": "view",
      "type": "function"
    },
    {
      "inputs": [],
      "name": "owner",
      "outputs": [
        {
          "internalType": "address",
          "name": "",
          "type": "address"
        }
      ],
      "stateMutability": "view",
      "type": "function"
    },
    {
      "inputs": [],
      "name": "pocEvaluator",
      "outputs": [
        {
          "internalType": "address",
          "name": "",
          "type": "address"
        }
      ],
      "stateMutability": "view",
      "type": "function"
    },
    {
      "inputs": [
        {
          "internalType": "bytes32",
          "name": "submissionHash",
          "type": "bytes32"
        },
        {
          "internalType": "string[]",
          "name": "metals",
          "type": "string[]"
        },
        {
          "internalType": "uint256",
          "name": "coherence",
          "type": "uint256"
        },
        {
          "internalType": "uint256",
          "name": "density",
          "type": "uint256"
        },
        {
          "internalType": "uint256",
          "name": "novelty",
          "type": "uint256"
        },
        {
          "internalType": "uint256",
          "name": "pocScore",
          "type": "uint256"
        }
      ],
      "name": "recordEvaluation",
      "outputs": [],
      "stateMutability": "nonpayable",
      "type": "function"
    },
    {
      "inputs": [
        {
          "internalType": "bytes32",
          "name": "submissionHash",
          "type": "bytes32"
        }
      ],
      "name": "registerCertificate",
      "outputs": [],
      "stateMutability": "payable",
      "type": "function"
    },
    {
      "inputs": [],
      "name": "renounceOwnership",
      "outputs": [],
      "stateMutability": "nonpayable",
      "type": "function"
    },
    {
      "inputs": [
        {
          "internalType": "address",
          "name": "newEvaluator",
          "type": "address"
        }
      ],
      "name": "setPOCEvaluator",
      "outputs": [],
      "stateMutability": "nonpayable",
      "type": "function"
    },
    {
      "inputs": [
        {
          "internalType": "bytes32",
          "name": "submissionHash",
          "type": "bytes32"
        },
        {
          "internalType": "address",
          "name": "contributor",
          "type": "address"
        },
        {
          "internalType": "string",
          "name": "title",
          "type": "string"
        },
        {
          "internalType": "string",
          "name": "category",
          "type": "string"
        }
      ],
      "name": "submitContribution",
      "outputs": [],
      "stateMutability": "nonpayable",
      "type": "function"
    },
    {
      "inputs": [],
      "name": "synthToken",
      "outputs": [
        {
          "internalType": "contract ISYNTH",
          "name": "",
          "type": "address"
        }
      ],
      "stateMutability": "view",
      "type": "function"
    },
    {
      "inputs": [
        {
          "internalType": "address",
          "name": "newOwner",
          "type": "address"
        }
      ],
      "name": "transferOwnership",
      "outputs": [],
      "stateMutability": "nonpayable",
      "type": "function"
    },
    {
      "inputs": [],
      "name": "withdrawFees",
      "outputs": [],
      "stateMutability": "nonpayable",
      "type": "function"
    }
  ],
  "bytecode": "0x60806040523480156200001157600080fd5b5060405162003c1238038062003c12833981810160405281019062000037919062000302565b620000576200004b620001cc60201b60201c565b620001d460201b60201c565b60018081905550600073ffffffffffffffffffffffffffffffffffffffff168273ffffffffffffffffffffffffffffffffffffffff1603620000d0576040517f08c379a0000000000000000000000000000000000000000000000000000000008152600401620000c790620003d0565b60405180910390fd5b600073ffffffffffffffffffffffffffffffffffffffff168173ffffffffffffffffffffffffffffffffffffffff160362000142576040517f08c379a0000000000000000000000000000000000000000000000000000000008152600401620001399062000468565b60405180910390fd5b81600260006101000a81548173ffffffffffffffffffffffffffffffffffffffff021916908373ffffffffffffffffffffffffffffffffffffffff16021790555080600360006101000a81548173ffffffffffffffffffffffffffffffffffffffff021916908373ffffffffffffffffffffffffffffffffffffffff16021790555050506200048a565b600033905090565b60008060009054906101000a900473ffffffffffffffffffffffffffffffffffffffff169050816000806101000a81548173ffffffffffffffffffffffffffffffffffffffff021916908373ffffffffffffffffffffffffffffffffffffffff1602179055508173ffffffffffffffffffffffffffffffffffffffff168173ffffffffffffffffffffffffffffffffffffffff167f8be0079c531659141344cd1fd0a4f28419497f9722a3daafe3b4186f6b6457e060405160405180910390a35050565b600080fd5b600073ffffffffffffffffffffffffffffffffffffffff82169050919050565b6000620002ca826200029d565b9050919050565b620002dc81620002bd565b8114620002e857600080fd5b50565b600081519050620002fc81620002d1565b92915050565b600080604083850312156200031c576200031b62000298565b5b60006200032c85828601620002eb565b92505060206200033f85828601620002eb565b9150509250929050565b600082825260208201905092915050565b7f53594e544820746f6b656e20616464726573732063616e6e6f74206265207a6560008201527f726f000000000000000000000000000000000000000000000000000000000000602082015250565b6000620003b860228362000349565b9150620003c5826200035a565b604082019050919050565b60006020820190508181036000830152620003eb81620003a9565b9050919050565b7f506f43206576616c7561746f7220616464726573732063616e6e6f742062652060008201527f7a65726f00000000000000000000000000000000000000000000000000000000602082015250565b60006200045060248362000349565b91506200045d82620003f2565b604082019050919050565b60006020820190508181036000830152620004838162000441565b9050919050565b613778806200049a6000396000f3fe6080604052600436106101405760003560e01c80638418129e116100b6578063bbcebd971161006f578063bbcebd9714610466578063ddf556d014610491578063e13b5817146104bc578063f101dce8146104e5578063f2fde38b14610501578063f960ac0b1461052a57610140565b80638418129e1461031c5780638da5cb5b146103595780639986748d146103845780639e342dc4146103c1578063b0fa0db9146103fe578063b6838cfa1461043b57610140565b80634a9aef68116101085780634a9aef681461020257806351858e271461023f5780635e1ea85814610256578063636091ee1461029357806364b4f751146102da578063715018a61461030557610140565b806303a15b69146101455780630de817b41461016e578063203ec0571461019757806345487014146101c0578063476343ee146101eb575b600080fd5b34801561015157600080fd5b5061016c60048036038101906101679190611f74565b610567565b005b34801561017a57600080fd5b506101956004803603810190610190919061208a565b610a9e565b005b3480156101a357600080fd5b506101be60048036038101906101b99190612168565b610d13565b005b3480156101cc57600080fd5b506101d5610f60565b6040516101e29190612226565b60405180910390f35b3480156101f757600080fd5b50610200610f65565b005b34801561020e57600080fd5b5061022960048036038101906102249190612241565b611006565b604051610236919061232c565b60405180910390f35b34801561024b57600080fd5b5061025461109d565b005b34801561026257600080fd5b5061027d6004803603810190610278919061234e565b6110a7565b60405161028a919061238a565b60405180910390f35b34801561029f57600080fd5b506102ba60048036038101906102b591906123a5565b6110cb565b6040516102d19b9a9998979695949392919061248c565b60405180910390f35b3480156102e657600080fd5b506102ef611262565b6040516102fc9190612226565b60405180910390f35b34801561031157600080fd5b5061031a61126f565b005b34801561032857600080fd5b50610343600480360381019061033e9190612241565b611283565b6040516103509190612226565b60405180910390f35b34801561036557600080fd5b5061036e6112eb565b60405161037b9190612545565b60405180910390f35b34801561039057600080fd5b506103ab60048036038101906103a69190612241565b611314565b6040516103b89190612226565b60405180910390f35b3480156103cd57600080fd5b506103e860048036038101906103e39190612560565b61132c565b6040516103f5919061238a565b60405180910390f35b34801561040a57600080fd5b50610425600480360381019061042091906123a5565b61135d565b60405161043291906127eb565b60405180910390f35b34801561044757600080fd5b5061045061163f565b60405161045d919061286c565b60405180910390f35b34801561047257600080fd5b5061047b611665565b6040516104889190612545565b60405180910390f35b34801561049d57600080fd5b506104a661168b565b6040516104b39190612226565b60405180910390f35b3480156104c857600080fd5b506104e360048036038101906104de9190612241565b611698565b005b6104ff60048036038101906104fa91906123a5565b611753565b005b34801561050d57600080fd5b5061052860048036038101906105239190612241565b611ab0565b005b34801561053657600080fd5b50610551600480360381019061054c91906123a5565b611b33565b60405161055e9190612887565b60405180910390f35b600360009054906101000a900473ffffffffffffffffffffffffffffffffffffffff1673ffffffffffffffffffffffffffffffffffffffff163373ffffffffffffffffffffffffffffffffffffffff16146105f7576040517f08c379a00000000000000000000000000000000000000000000000000000000081526004016105ee90612914565b60405180910390fd5b600073ffffffffffffffffffffffffffffffffffffffff166004600088815260200190815260200160002060010160009054906101000a900473ffffffffffffffffffffffffffffffffffffffff1673ffffffffffffffffffffffffffffffffffffffff161461069c576040517f08c379a000000000000000000000000000000000000000000000000000000000815260040161069390612980565b60405180910390fd5b600073ffffffffffffffffffffffffffffffffffffffff168573ffffffffffffffffffffffffffffffffffffffff160361070b576040517f08c379a000000000000000000000000000000000000000000000000000000000815260040161070290612a12565b60405180910390fd5b6040518061018001604052808781526020018673ffffffffffffffffffffffffffffffffffffffff16815260200185858080601f016020809104026020016040519081016040528093929190818152602001838380828437600081840152601f19601f82011690508083019250505050505050815260200183838080601f016020809104026020016040519081016040528093929190818152602001838380828437600081840152601f19601f820116905080830192505050505050508152602001600067ffffffffffffffff8111156107e8576107e7612a32565b5b60405190808252806020026020018201604052801561081b57816020015b60608152602001906001900390816108065790505b508152602001600081526020016000815260200160008152602001600081526020014281526020016000151581526020016000815250600460008881526020019081526020016000206000820151816000015560208201518160010160006101000a81548173ffffffffffffffffffffffffffffffffffffffff021916908373ffffffffffffffffffffffffffffffffffffffff16021790555060408201518160020190816108ca9190612c63565b5060608201518160030190816108e09190612c63565b5060808201518160040190805190602001906108fd929190611cfa565b5060a0820151816005015560c0820151816006015560e082015181600701556101008201518160080155610120820151816009015561014082015181600a0160006101000a81548160ff02191690831515021790555061016082015181600b0155905050600560008673ffffffffffffffffffffffffffffffffffffffff1673ffffffffffffffffffffffffffffffffffffffff16815260200190815260200160002060008154809291906109b190612d64565b9190505550600660008673ffffffffffffffffffffffffffffffffffffffff1673ffffffffffffffffffffffffffffffffffffffff16815260200190815260200160002086908060018154018082558091505060019003906000526020600020016000909190919091505560078690806001815401808255809150506001900390600052602060002001600090919091909150558473ffffffffffffffffffffffffffffffffffffffff16867f696b77685b2ddd57506c8b56ca0b6945b563198ebf44fcaccc6cc10d81fffe9b8484604051610a8e929190612de8565b60405180910390a3505050505050565b600360009054906101000a900473ffffffffffffffffffffffffffffffffffffffff1673ffffffffffffffffffffffffffffffffffffffff163373ffffffffffffffffffffffffffffffffffffffff1614610b2e576040517f08c379a0000000000000000000000000000000000000000000000000000000008152600401610b2590612914565b60405180910390fd5b84600073ffffffffffffffffffffffffffffffffffffffff166004600083815260200190815260200160002060010160009054906101000a900473ffffffffffffffffffffffffffffffffffffffff1673ffffffffffffffffffffffffffffffffffffffff1603610bd4576040517f08c379a0000000000000000000000000000000000000000000000000000000008152600401610bcb90612e58565b60405180910390fd5b600060046000888152602001908152602001600020905080600a0160009054906101000a900460ff16610c3c576040517f08c379a0000000000000000000000000000000000000000000000000000000008152600401610c3390612ec4565b60405180910390fd5b600260009054906101000a900473ffffffffffffffffffffffffffffffffffffffff1673ffffffffffffffffffffffffffffffffffffffff1663ec3cface8260010160009054906101000a900473ffffffffffffffffffffffffffffffffffffffff16888860ff166003811115610cb657610cb5612ee4565b5b88886040518663ffffffff1660e01b8152600401610cd8959493929190612f5b565b600060405180830381600087803b158015610cf257600080fd5b505af1158015610d06573d6000803e3d6000fd5b5050505050505050505050565b600360009054906101000a900473ffffffffffffffffffffffffffffffffffffffff1673ffffffffffffffffffffffffffffffffffffffff163373ffffffffffffffffffffffffffffffffffffffff1614610da3576040517f08c379a0000000000000000000000000000000000000000000000000000000008152600401610d9a90612914565b60405180910390fd5b86600073ffffffffffffffffffffffffffffffffffffffff166004600083815260200190815260200160002060010160009054906101000a900473ffffffffffffffffffffffffffffffffffffffff1673ffffffffffffffffffffffffffffffffffffffff1603610e49576040517f08c379a0000000000000000000000000000000000000000000000000000000008152600401610e4090612e58565b60405180910390fd5b6000600460008a81526020019081526020016000209050806004016000610e709190611d53565b60005b88889050811015610ef45781600401898983818110610e9557610e94612fa9565b5b9050602002810190610ea79190612fe7565b90918060018154018082558091505060019003906000526020600020016000909192909192909192909192509182610ee0929190613055565b508080610eec90612d64565b915050610e73565b50858160050181905550848160060181905550838160070181905550828160080181905550887f42c6385f27276bdf3fecda1cded73c5ca05c167ff247dbee495ed27d42efaa9a898986604051610f4d93929190613278565b60405180910390a2505050505050505050565b600381565b610f6d611b58565b600047905060008111610fb5576040517f08c379a0000000000000000000000000000000000000000000000000000000008152600401610fac906132f6565b60405180910390fd5b610fbd6112eb565b73ffffffffffffffffffffffffffffffffffffffff166108fc829081150290604051600060405180830381858888f19350505050158015611002573d6000803e3d6000fd5b5050565b6060600660008373ffffffffffffffffffffffffffffffffffffffff1673ffffffffffffffffffffffffffffffffffffffff16815260200190815260200160002080548060200260200160405190810160405280929190818152602001828054801561109157602002820191906000526020600020905b81548152602001906001019080831161107d575b50505050509050919050565b6110a5611b58565b565b600781815481106110b757600080fd5b906000526020600020016000915090505481565b60046020528060005260406000206000915090508060000154908060010160009054906101000a900473ffffffffffffffffffffffffffffffffffffffff169080600201805461111a90612a90565b80601f016020809104026020016040519081016040528092919081815260200182805461114690612a90565b80156111935780601f1061116857610100808354040283529160200191611193565b820191906000526020600020905b81548152906001019060200180831161117657829003601f168201915b5050505050908060030180546111a890612a90565b80601f01602080910402602001604051908101604052809291908181526020018280546111d490612a90565b80156112215780601f106111f657610100808354040283529160200191611221565b820191906000526020600020905b81548152906001019060200180831161120457829003601f168201915b50505050509080600501549080600601549080600701549080600801549080600901549080600a0160009054906101000a900460ff169080600b015490508b565b6802b5e3af16b188000081565b611277611b58565b6112816000611bd6565b565b600080600560008473ffffffffffffffffffffffffffffffffffffffff1673ffffffffffffffffffffffffffffffffffffffff16815260200190815260200160002054905060038111156112e0576802b5e3af16b18800006112e3565b60005b915050919050565b60008060009054906101000a900473ffffffffffffffffffffffffffffffffffffffff16905090565b60056020528060005260406000206000915090505481565b6006602052816000526040600020818154811061134857600080fd5b90600052602060002001600091509150505481565b611365611d74565b6004600083815260200190815260200160002060405180610180016040529081600082015481526020016001820160009054906101000a900473ffffffffffffffffffffffffffffffffffffffff1673ffffffffffffffffffffffffffffffffffffffff1673ffffffffffffffffffffffffffffffffffffffff1681526020016002820180546113f490612a90565b80601f016020809104026020016040519081016040528092919081815260200182805461142090612a90565b801561146d5780601f106114425761010080835404028352916020019161146d565b820191906000526020600020905b81548152906001019060200180831161145057829003601f168201915b5050505050815260200160038201805461148690612a90565b80601f01602080910402602001604051908101604052809291908181526020018280546114b290612a90565b80156114ff5780601f106114d4576101008083540402835291602001916114ff565b820191906000526020600020905b8154815290600101906020018083116114e257829003601f168201915b5050505050815260200160048201805480602002602001604051908101604052809291908181526020016000905b828210156115d957838290600052602060002001805461154c90612a90565b80601f016020809104026020016040519081016040528092919081815260200182805461157890612a90565b80156115c55780601f1061159a576101008083540402835291602001916115c5565b820191906000526020600020905b8154815290600101906020018083116115a857829003601f168201915b50505050508152602001906001019061152d565b5050505081526020016005820154815260200160068201548152602001600782015481526020016008820154815260200160098201548152602001600a820160009054906101000a900460ff16151515158152602001600b820154815250509050919050565b600260009054906101000a900473ffffffffffffffffffffffffffffffffffffffff1681565b600360009054906101000a900473ffffffffffffffffffffffffffffffffffffffff1681565b6000600780549050905090565b6116a0611b58565b600073ffffffffffffffffffffffffffffffffffffffff168173ffffffffffffffffffffffffffffffffffffffff160361170f576040517f08c379a000000000000000000000000000000000000000000000000000000000815260040161170690613388565b60405180910390fd5b80600360006101000a81548173ffffffffffffffffffffffffffffffffffffffff021916908373ffffffffffffffffffffffffffffffffffffffff16021790555050565b61175b611c9a565b6000600460008381526020019081526020016000209050600073ffffffffffffffffffffffffffffffffffffffff168160010160009054906101000a900473ffffffffffffffffffffffffffffffffffffffff1673ffffffffffffffffffffffffffffffffffffffff1603611805576040517f08c379a00000000000000000000000000000000000000000000000000000000081526004016117fc90612e58565b60405180910390fd5b600081600401805490501161184f576040517f08c379a00000000000000000000000000000000000000000000000000000000081526004016118469061341a565b60405180910390fd5b80600a0160009054906101000a900460ff16156118a1576040517f08c379a000000000000000000000000000000000000000000000000000000000815260040161189890613486565b60405180910390fd5b3373ffffffffffffffffffffffffffffffffffffffff168160010160009054906101000a900473ffffffffffffffffffffffffffffffffffffffff1673ffffffffffffffffffffffffffffffffffffffff1614611933576040517f08c379a000000000000000000000000000000000000000000000000000000000815260040161192a90613518565b60405180910390fd5b6000600560003373ffffffffffffffffffffffffffffffffffffffff1673ffffffffffffffffffffffffffffffffffffffff1681526020019081526020016000205490506000600382111561198f576802b5e3af16b188000090505b803410156119d2576040517f08c379a00000000000000000000000000000000000000000000000000000000081526004016119c990613584565b60405180910390fd5b600183600a0160006101000a81548160ff0219169083151502179055508083600b018190555080341115611a53573373ffffffffffffffffffffffffffffffffffffffff166108fc8234611a2691906135a4565b9081150290604051600060405180830381858888f19350505050158015611a51573d6000803e3d6000fd5b505b3373ffffffffffffffffffffffffffffffffffffffff16847f0b72fa3233ea9d06bb49c49a07500379ad7cc42858fb6bd48d31dc5cf3f8487e83604051611a9a9190612226565b60405180910390a3505050611aad611ce9565b50565b611ab8611b58565b600073ffffffffffffffffffffffffffffffffffffffff168173ffffffffffffffffffffffffffffffffffffffff1603611b27576040517f08c379a0000000000000000000000000000000000000000000000000000000008152600401611b1e9061364a565b60405180910390fd5b611b3081611bd6565b50565b6000806004600084815260200190815260200160002060040180549050119050919050565b611b60611cf2565b73ffffffffffffffffffffffffffffffffffffffff16611b7e6112eb565b73ffffffffffffffffffffffffffffffffffffffff1614611bd4576040517f08c379a0000000000000000000000000000000000000000000000000000000008152600401611bcb906136b6565b60405180910390fd5b565b60008060009054906101000a900473ffffffffffffffffffffffffffffffffffffffff169050816000806101000a81548173ffffffffffffffffffffffffffffffffffffffff021916908373ffffffffffffffffffffffffffffffffffffffff1602179055508173ffffffffffffffffffffffffffffffffffffffff168173ffffffffffffffffffffffffffffffffffffffff167f8be0079c531659141344cd1fd0a4f28419497f9722a3daafe3b4186f6b6457e060405160405180910390a35050565b600260015403611cdf576040517f08c379a0000000000000000000000000000000000000000000000000000000008152600401611cd690613722565b60405180910390fd5b6002600181905550565b60018081905550565b600033905090565b828054828255906000526020600020908101928215611d42579160200282015b82811115611d41578251829081611d319190612c63565b5091602001919060010190611d1a565b5b509050611d4f9190611df0565b5090565b5080546000825590600052602060002090810190611d719190611df0565b50565b60405180610180016040528060008019168152602001600073ffffffffffffffffffffffffffffffffffffffff1681526020016060815260200160608152602001606081526020016000815260200160008152602001600081526020016000815260200160008152602001600015158152602001600081525090565b5b80821115611e105760008181611e079190611e14565b50600101611df1565b5090565b508054611e2090612a90565b6000825580601f10611e325750611e51565b601f016020900490600052602060002090810190611e509190611e54565b5b50565b5b80821115611e6d576000816000905550600101611e55565b5090565b600080fd5b600080fd5b6000819050919050565b611e8e81611e7b565b8114611e9957600080fd5b50565b600081359050611eab81611e85565b92915050565b600073ffffffffffffffffffffffffffffffffffffffff82169050919050565b6000611edc82611eb1565b9050919050565b611eec81611ed1565b8114611ef757600080fd5b50565b600081359050611f0981611ee3565b92915050565b600080fd5b600080fd5b600080fd5b60008083601f840112611f3457611f33611f0f565b5b8235905067ffffffffffffffff811115611f5157611f50611f14565b5b602083019150836001820283011115611f6d57611f6c611f19565b5b9250929050565b60008060008060008060808789031215611f9157611f90611e71565b5b6000611f9f89828a01611e9c565b9650506020611fb089828a01611efa565b955050604087013567ffffffffffffffff811115611fd157611fd0611e76565b5b611fdd89828a01611f1e565b9450945050606087013567ffffffffffffffff81111561200057611fff611e76565b5b61200c89828a01611f1e565b92509250509295509295509295565b6000819050919050565b61202e8161201b565b811461203957600080fd5b50565b60008135905061204b81612025565b92915050565b600060ff82169050919050565b61206781612051565b811461207257600080fd5b50565b6000813590506120848161205e565b92915050565b6000806000806000608086880312156120a6576120a5611e71565b5b60006120b488828901611e9c565b95505060206120c58882890161203c565b94505060406120d688828901612075565b935050606086013567ffffffffffffffff8111156120f7576120f6611e76565b5b61210388828901611f1e565b92509250509295509295909350565b60008083601f84011261212857612127611f0f565b5b8235905067ffffffffffffffff81111561214557612144611f14565b5b60208301915083602082028301111561216157612160611f19565b5b9250929050565b600080600080600080600060c0888a03121561218757612186611e71565b5b60006121958a828b01611e9c565b975050602088013567ffffffffffffffff8111156121b6576121b5611e76565b5b6121c28a828b01612112565b965096505060406121d58a828b0161203c565b94505060606121e68a828b0161203c565b93505060806121f78a828b0161203c565b92505060a06122088a828b0161203c565b91505092959891949750929550565b6122208161201b565b82525050565b600060208201905061223b6000830184612217565b92915050565b60006020828403121561225757612256611e71565b5b600061226584828501611efa565b91505092915050565b600081519050919050565b600082825260208201905092915050565b6000819050602082019050919050565b6122a381611e7b565b82525050565b60006122b5838361229a565b60208301905092915050565b6000602082019050919050565b60006122d98261226e565b6122e38185612279565b93506122ee8361228a565b8060005b8381101561231f57815161230688826122a9565b9750612311836122c1565b9250506001810190506122f2565b5085935050505092915050565b6000602082019050818103600083015261234681846122ce565b905092915050565b60006020828403121561236457612363611e71565b5b60006123728482850161203c565b91505092915050565b61238481611e7b565b82525050565b600060208201905061239f600083018461237b565b92915050565b6000602082840312156123bb576123ba611e71565b5b60006123c984828501611e9c565b91505092915050565b6123db81611ed1565b82525050565b600081519050919050565b600082825260208201905092915050565b60005b8381101561241b578082015181840152602081019050612400565b60008484015250505050565b6000601f19601f8301169050919050565b6000612443826123e1565b61244d81856123ec565b935061245d8185602086016123fd565b61246681612427565b840191505092915050565b60008115159050919050565b61248681612471565b82525050565b6000610160820190506124a2600083018e61237b565b6124af602083018d6123d2565b81810360408301526124c1818c612438565b905081810360608301526124d5818b612438565b90506124e4608083018a612217565b6124f160a0830189612217565b6124fe60c0830188612217565b61250b60e0830187612217565b612519610100830186612217565b61252761012083018561247d565b612535610140830184612217565b9c9b505050505050505050505050565b600060208201905061255a60008301846123d2565b92915050565b6000806040838503121561257757612576611e71565b5b600061258585828601611efa565b92505060206125968582860161203c565b9150509250929050565b6125a981611ed1565b82525050565b600082825260208201905092915050565b60006125cb826123e1565b6125d581856125af565b93506125e58185602086016123fd565b6125ee81612427565b840191505092915050565b600081519050919050565b600082825260208201905092915050565b6000819050602082019050919050565b600061263183836125c0565b905092915050565b6000602082019050919050565b6000612651826125f9565b61265b8185612604565b93508360208202850161266d85612615565b8060005b858110156126a9578484038952815161268a8582612625565b945061269583612639565b925060208a01995050600181019050612671565b50829750879550505050505092915050565b6126c48161201b565b82525050565b6126d381612471565b82525050565b6000610180830160008301516126f2600086018261229a565b50602083015161270560208601826125a0565b506040830151848203604086015261271d82826125c0565b9150506060830151848203606086015261273782826125c0565b915050608083015184820360808601526127518282612646565b91505060a083015161276660a08601826126bb565b5060c083015161277960c08601826126bb565b5060e083015161278c60e08601826126bb565b506101008301516127a16101008601826126bb565b506101208301516127b66101208601826126bb565b506101408301516127cb6101408601826126ca565b506101608301516127e06101608601826126bb565b508091505092915050565b6000602082019050818103600083015261280581846126d9565b905092915050565b6000819050919050565b600061283261282d61282884611eb1565b61280d565b611eb1565b9050919050565b600061284482612817565b9050919050565b600061285682612839565b9050919050565b6128668161284b565b82525050565b6000602082019050612881600083018461285d565b92915050565b600060208201905061289c600083018461247d565b92915050565b7f4f6e6c7920506f43206576616c7561746f722063616e2063616c6c207468697360008201527f2066756e6374696f6e0000000000000000000000000000000000000000000000602082015250565b60006128fe6029836123ec565b9150612909826128a2565b604082019050919050565b6000602082019050818103600083015261292d816128f1565b9050919050565b7f436f6e747269627574696f6e20616c7265616479206578697374730000000000600082015250565b600061296a601b836123ec565b915061297582612934565b602082019050919050565b600060208201905081810360008301526129998161295d565b9050919050565b7f436f6e7472696275746f722063616e6e6f74206265207a65726f20616464726560008201527f7373000000000000000000000000000000000000000000000000000000000000602082015250565b60006129fc6022836123ec565b9150612a07826129a0565b604082019050919050565b60006020820190508181036000830152612a2b816129ef565b9050919050565b7f4e487b7100000000000000000000000000000000000000000000000000000000600052604160045260246000fd5b7f4e487b7100000000000000000000000000000000000000000000000000000000600052602260045260246000fd5b60006002820490506001821680612aa857607f821691505b602082108103612abb57612aba612a61565b5b50919050565b60008190508160005260206000209050919050565b60006020601f8301049050919050565b600082821b905092915050565b600060088302612b237fffffffffffffffffffffffffffffffffffffffffffffffffffffffffffffffff82612ae6565b612b2d8683612ae6565b95508019841693508086168417925050509392505050565b6000612b60612b5b612b568461201b565b61280d565b61201b565b9050919050565b6000819050919050565b612b7a83612b45565b612b8e612b8682612b67565b848454612af3565b825550505050565b600090565b612ba3612b96565b612bae818484612b71565b505050565b5b81811015612bd257612bc7600082612b9b565b600181019050612bb4565b5050565b601f821115612c1757612be881612ac1565b612bf184612ad6565b81016020851015612c00578190505b612c14612c0c85612ad6565b830182612bb3565b50505b505050565b600082821c905092915050565b6000612c3a60001984600802612c1c565b1980831691505092915050565b6000612c538383612c29565b9150826002028217905092915050565b612c6c826123e1565b67ffffffffffffffff811115612c8557612c84612a32565b5b612c8f8254612a90565b612c9a828285612bd6565b600060209050601f831160018114612ccd5760008415612cbb578287015190505b612cc58582612c47565b865550612d2d565b601f198416612cdb86612ac1565b60005b82811015612d0357848901518255600182019150602085019450602081019050612cde565b86831015612d205784890151612d1c601f891682612c29565b8355505b6001600288020188555050505b505050505050565b7f4e487b7100000000000000000000000000000000000000000000000000000000600052601160045260246000fd5b6000612d6f8261201b565b91507fffffffffffffffffffffffffffffffffffffffffffffffffffffffffffffffff8203612da157612da0612d35565b5b600182019050919050565b82818337600083830152505050565b6000612dc783856123ec565b9350612dd4838584612dac565b612ddd83612427565b840190509392505050565b60006020820190508181036000830152612e03818486612dbb565b90509392505050565b7f436f6e747269627574696f6e20646f6573206e6f742065786973740000000000600082015250565b6000612e42601b836123ec565b9150612e4d82612e0c565b602082019050919050565b60006020820190508181036000830152612e7181612e35565b9050919050565b7f436f6e747269627574696f6e206e6f7420726567697374657265640000000000600082015250565b6000612eae601b836123ec565b9150612eb982612e78565b602082019050919050565b60006020820190508181036000830152612edd81612ea1565b9050919050565b7f4e487b7100000000000000000000000000000000000000000000000000000000600052602160045260246000fd5b60048110612f2457612f23612ee4565b5b50565b6000819050612f3582612f13565b919050565b6000612f4582612f27565b9050919050565b612f5581612f3a565b82525050565b6000608082019050612f7060008301886123d2565b612f7d6020830187612217565b612f8a6040830186612f4c565b8181036060830152612f9d818486612dbb565b90509695505050505050565b7f4e487b7100000000000000000000000000000000000000000000000000000000600052603260045260246000fd5b600080fd5b600080fd5b600080fd5b6000808335600160200384360303811261300457613003612fd8565b5b80840192508235915067ffffffffffffffff82111561302657613025612fdd565b5b60208301925060018202360383131561304257613041612fe2565b5b509250929050565b600082905092915050565b61305f838361304a565b67ffffffffffffffff81111561307857613077612a32565b5b6130828254612a90565b61308d828285612bd6565b6000601f8311600181146130bc57600084156130aa578287013590505b6130b48582612c47565b86555061311c565b601f1984166130ca86612ac1565b60005b828110156130f2578489013582556001820191506020850194506020810190506130cd565b8683101561310f578489013561310b601f891682612c29565b8355505b6001600288020188555050505b50505050505050565b600082825260208201905092915050565b6000819050919050565b600061314c83856125af565b9350613159838584612dac565b61316283612427565b840190509392505050565b600061317a848484613140565b90509392505050565b600080fd5b600080fd5b600080fd5b600080833560016020038436030381126131af576131ae61318d565b5b83810192508235915060208301925067ffffffffffffffff8211156131d7576131d6613183565b5b6001820236038313156131ed576131ec613188565b5b509250929050565b6000602082019050919050565b600061320e8385613125565b93508360208402850161322084613136565b8060005b8781101561326657848403895261323b8284613192565b61324686828461316d565b9550613251846131f5565b935060208b019a505050600181019050613224565b50829750879450505050509392505050565b60006040820190508181036000830152613293818587613202565b90506132a26020830184612217565b949350505050565b7f4e6f206665657320746f20776974686472617700000000000000000000000000600082015250565b60006132e06013836123ec565b91506132eb826132aa565b602082019050919050565b6000602082019050818103600083015261330f816132d3565b9050919050565b7f4e6577206576616c7561746f722063616e6e6f74206265207a65726f2061646460008201527f7265737300000000000000000000000000000000000000000000000000000000602082015250565b60006133726024836123ec565b915061337d82613316565b604082019050919050565b600060208201905081810360008301526133a181613365565b9050919050565b7f436f6e747269627574696f6e206e6f74207175616c696669656420666f72207260008201527f6567697374726174696f6e000000000000000000000000000000000000000000602082015250565b6000613404602b836123ec565b915061340f826133a8565b604082019050919050565b60006020820190508181036000830152613433816133f7565b9050919050565b7f436572746966696361746520616c726561647920726567697374657265640000600082015250565b6000613470601e836123ec565b915061347b8261343a565b602082019050919050565b6000602082019050818103600083015261349f81613463565b9050919050565b7f4f6e6c7920636f6e7472696275746f722063616e20726567697374657220636560008201527f7274696669636174650000000000000000000000000000000000000000000000602082015250565b60006135026029836123ec565b915061350d826134a6565b604082019050919050565b60006020820190508181036000830152613531816134f5565b9050919050565b7f496e73756666696369656e7420726567697374726174696f6e20666565000000600082015250565b600061356e601d836123ec565b915061357982613538565b602082019050919050565b6000602082019050818103600083015261359d81613561565b9050919050565b60006135af8261201b565b91506135ba8361201b565b92508282039050818111156135d2576135d1612d35565b5b92915050565b7f4f776e61626c653a206e6577206f776e657220697320746865207a65726f206160008201527f6464726573730000000000000000000000000000000000000000000000000000602082015250565b60006136346026836123ec565b915061363f826135d8565b604082019050919050565b6000602082019050818103600083015261366381613627565b9050919050565b7f4f776e61626c653a2063616c6c6572206973206e6f7420746865206f776e6572600082015250565b60006136a06020836123ec565b91506136ab8261366a565b602082019050919050565b600060208201905081810360008301526136cf81613693565b9050919050565b7f5265656e7472616e637947756172643a207265656e7472616e742063616c6c00600082015250565b600061370c601f836123ec565b9150613717826136d6565b602082019050919050565b6000602082019050818103600083015261373b816136ff565b905091905056fea2646970667358221220afab88225534004300c1b58d95871bca3cda830ca4762d0d5078c5462af9f7b164736f6c63430008130033",
  "linkReferences": {},
  "deployedLinkReferences": {},
  "immutableReferences": {},
  "inputSourceName": "project/src/POCRegistry.sol",
  "buildInfoId": "solc-0_8_19-beda35edfcc5b229c5898fc9ec154e8ddd967932"
}